:020000040000FA
:1000000002005000000080FB12005FB900030200F4
:100010004AE4900200781179018002F0A3D8FCD95B
:10002000FA900210AA82AB83900062781F79018057
:1000300015E493A3AC82AD838A828B83F0A3AA825A
:10004000AB838C828D83D8E9D9E712042212000396
:1000500075D0007581BF7510007511020200087916
:1000600001220454656D70657261747572653A00A1
:1000700048756D69646974793A00202020000A008F
:10008000CAC0E0E6F0A308DAFAD0E0FA22CAC0E07B
:10009000E0A3C582CCC582C583CDC583F0A3C5824C
:1000A000CCC582C583CDC583DAE6D0E0CA2225104F
:1000B00010AF08F510400215118008F51040021528
:1000C00011D2AF22C0D0251010AF08F51050020594
:1000D000118008F51050020511D2AFD0D0222510A2
:1000E000F58210AF08F510400215118008F5104098
:1000F000021511D2AF851183222510F582E4351146
:10010000F583222510C582C0E0E51134FFC583C008
:10011000E0E510C3958224F910AF0885831185822C
:10012000108008858311858210D2AFCEF0A3E52020
:10013000F0A37808E608F0A3DEFAEFF0A3E5812447
:10014000FBF8E608F0A3E608F0A30808E608F0A329
:10015000E608F0A315811581D0E0FED0E0F8158106
:100160001581E8C0E0EEC0E022851183851082E0B1
:10017000A3FEE0A3F5207808E0A3F608DFFAE0A3E9
:10018000FFE0A3C0E0E0A3C0E0E0A3C0E0E0A3C0C4
:10019000E010AF0885821085831180088582108564
:1001A0008311D2AFD083D0822274028000C0E0F4E9
:1001B000041200DED0E012008022780A7900E8FA0A
:1001C000E9FBEA24FFF8EB34FFF9EA4B70F0227404
:1001D000F8120103EAFEEBFFEEF8EFF9E824FFFE68
:1001E000E934FFFFE8496011750800E508C394642D
:1001F00050E61201BA050880F27F0102016974F825
:100200001201037E00801690020FE0C33390020FAC
:10021000F0900201E0F890020FE048F00EEEC39477
:100220000850539002007402F0A2A0400F90020008
:10023000E0F8740128900200F0E870ED1201BA12A3
:1002400001BA1201BA9002017400F0A2A050069007
:1002500002017401F09002007402F0A2A0500F900D
:100260000200E0F8740128900200F0E870ED9002BE
:1002700000E0640170917F01020169C082C083C205
:10028000A07A137B001201CFD2A053FFFE1201BA55
:100290001201BA1201BA1201BAA2A050030203A7B6
:1002A0009002007402F0A2A0400F900200E0F874E7
:1002B0000128900200F0E870ED9002007402F0A2B4
:1002C000A0500F900200E0F8740128900200F0E8BE
:1002D00070ED1201FE90020FE090020CF01201FE90
:1002E00090020FE090020DF01201FE90020FE090DC
:1002F000020AF01201FE90020FE090020BF01201D0
:10030000FE90020FE090020EF0D2A090020DC0828B
:10031000C08390020CC082C08390020BC082C08355
:1003200090020AE0D083D082F8E028D083D082F80F
:10033000E028D083D082F8E028900201F0900201FA
:10034000E0F890020EE068702890020CE09002073E
:10035000F090020DE0900208F090020AE090020591
:10036000F090020BE0900206F090020EE09002097D
:10037000F075F00A900205E084900204F090020506
:10038000E075F00A84E5F0900210F075F00A900232
:1003900007E084900202F0900207E075F00A84E51D
:1003A000F0900203F080189002047400F0900210A4
:1003B0007400F09002027400F09002037400F043A5
:1003C000FF01D083D0822253C6BFE59EA2E640FA49
:1003D00053C6B875F10075F30C53FF3F4386804355
:1003E000C50843C23BC2E92274F8120103780079C0
:1003F00000801E8A828B83E0F5C18A828B83A3AA48
:1004000082AB83A2E950FCC2E9E82401F8E9340098
:10041000F9C3E89CE99DA2D265D03340D67F0102A2
:10042000016974E31200AE900211C082C08374109F
:100430001200F9AC82AD83D083D082740D12008D8E
:1004400090021EC082C08374061200F9AC82AD8394
:10045000D083D082740A12008D7AE87B031201CF18
:100460001203C775080375090078081201A97C00FA
:100470007D0074051200F9AA82AB83120544740250
:100480001200C475080375090078081201A97C00E0
:100490007D0074021200F9AA82AB83120544740233
:1004A0001200C412027B900204E02430C0E0740306
:1004B0001200F9D0E0F0900210E02430C0E07404A3
:1004C0001200F9D0E0F0900202E02430851082851D
:1004D0001183F0900203E02430C0E074011200F9AF
:1004E000D0E0F07C0C7D0074101200F9AA82AB837E
:1004F0001203E87C027D0074031200F9AA82AB8328
:100500001203E87C037D007A287B021203E87C0951
:100510007D0074061200F9AA82AB831203E87C0204
:100520007D00851082851183AA82AB831203E87C4B
:10053000017D007A2C7B021203E87AB87B0B120152
:10054000CF02046374F812010374081200F9E0F892
:10055000A3E0F98A828B838003ECF0A3E8FEE9FF35
:10056000EE24FF18EF34FFF9EE4F70ED7F0102012A
:010570006921
:0400000500000050A7
:00000001FF
